:1000000019C033C032C031C030C02FC02EC02DC087
:100010002CC02BC02AC029C028C027C026C025C09C
:1000200024C023C022C021C020C01FC01EC01DC0CC
:100030001CC01BC011241FBECFEFD4E0DEBFCDBF5C
:1000400011E0A0E0B1E0ECE0F1E002C005900D921B
:10005000A230B107D9F721E0A2E0B1E001C01D92C2
:10006000A230B207E1F702D04FC0CACF8FEF8AB9F2
:100070001092000180E021E030E0A90102C0440FAD
:10008000551F8A95E2F74BB95FE78AE196E0515038
:1000900080409040E1F700C00000809100018F5F38
:1000A00080930001883048F31092000180E020E83E
:1000B00030E0A90102C0559547958A95E2F74BB902
:1000C0005FE78AE196E0515080409040E1F700C040
:1000D0000000809100018F5F80930001883048F319
:1000E00010920001809100018BB92FE74AE156E0A0
:1000F000215040405040E1F700C0000080910001D5
:0C0100008F5F80930001EECFF894FFCFDA
:02010C000100F0
:00000001FF
