:1000000019C033C032C031C030C02FC02EC02DC087
:100010002CC02BC02AC029C028C027C026C025C09C
:1000200024C023C022C021C020C01FC01EC01DC0CC
:100030001CC01BC011241FBECFEFD4E0DEBFCDBF5C
:1000400011E0A0E0B1E0E4EAF1E002C005900D9219
:10005000A23AB107D9F721E0A2EAB1E001C01D92AE
:10006000A43AB207E1F770D09BC0CACF27E0829FC5
:10007000C0011124FC01E050FF4FA081B1812C91FF
:1000800081E090E0068002C0880F991F0A94E2F791
:10009000822B8C93089527E0829FC0011124FC01DC
:1000A000E050FF4FA281B3812C9181E090E0068067
:1000B00002C0880F991F0A94E2F7822B8C9308954F
:1000C0008731A0F497E0899FF0011124E050FF4FA1
:1000D000A281B3812C9181E090E0068002C0880F5C
:1000E000991F0A94E2F7809582238C9308951092C9
:1000F0007C0080917A00836C80937A0080917A00F2
:1001000084FFFCCF80917A00806180937A0008950B
:1001100080937C0080917A00836480937A00809140
:100120007A0084FFFCCF80917A00806180937A000E
:1001300080917800909179000895D9DF80E096DF72
:1001400081E094DF82E092CFF8DF81E0E1DF9093FD
:10015000A3018093A2018F3F910509F018F480E07C
:10016000AFDF07C09C013A952130314028F480E090
:1001700092DF81E0A5DF0AC0815092408F3F910558
:1001800009F038F480E087DF81E085DF82E098DFE6
:10019000DCCF80E080DF81E07EDF82E07CDFD5CFD6
:0401A000F894FFCF01
:1001A4002A002B002900002A002B002900012A0024
:1001B4002B002900022A002B002900032A002B000F
:1001C4002900042A002B002900052A002B002900FD
:1001D400062A002B00290007240025002300002400
:1001E400002500230001240025002300022400250B
:1001F40000230003240025002300042400250023F9
:100204000005240025002300062400250023000700
:1002140027002800260000270028002600012700C8
:1002240028002600022700280026000327002800B3
:1002340026000427002800260005270028002600A1
:020244000600B2
:00000001FF
