:100000000C9434000C9449000C9449000C94490061
:100010000C9449000C9449000C9449000C9449003C
:100020000C9449000C9449000C9449000C9449002C
:100030000C9449000C9449000C9449000C9449001C
:100040000C9449000C9449000C9449000C9449000C
:100050000C9449000C9449000C9449000C944900FC
:100060000C9449000C94490011241FBECFEFD8E036
:10007000DEBFCDBF11E0A0E0B1E0EAE4F1E002C0F4
:1000800005900D92A030B107D9F70E944B000C9457
:10009000A3000C9400008FEF8AB984B915B81BB87F
:1000A00041E050E0E0E0F0E0CA010E2E02C0880F0F
:1000B000991F0A94E2F785B96FE015C09A01082EDE
:1000C00002C0220F331F0A94E2F720952BB9AFE943
:1000D000BFE01197F1F700C000000196883091054C
:1000E00069F7615019F080E090E0E8CF3196E83090
:1000F000F105D1F6E0E0F0E0CA010E2E02C0880F53
:10010000991F0A94E2F780958BB96FE014C09A01A9
:10011000082E02C0220F331F0A94E2F725B9AFE977
:10012000BFE01197F1F700C00000019688309105FB
:1001300071F7615019F080E090E0E9CF3196E83036
:0A014000F105D1F6AFCFF894FFCF20
:00000001FF
