:1000000019C033C032C031C030C02FC02EC02DC087
:100010002CC02BC02AC029C028C027C026C025C09C
:1000200024C023C022C021C020C01FC01EC01DC0CC
:100030001CC01BC011241FBECFEFD4E0DEBFCDBF5C
:1000400011E0A0E0B1E0E6EAF0E002C005900D9218
:10005000A230B107D9F721E0A2E0B1E001C01D92C2
:10006000A330B207E1F702D01CC0CACF8FEF8AB924
:10007000809100018BB92FEF84E39CE021508040F8
:100080009040E1F700C00000809102018BB92FEF92
:1000900084E39CE0215080409040E1F700C00000E4
:0600A000E7CFF894FFCF4A
:0200A600FF0059
:00000001FF
