S01B00004672657175656E63792D47656E657261746F722E7372656383
S11300000C9472000C947E000C947E000C947E0080
S11300100C947E000C947E000C947E000C947E0064
S11300200C947E000C947E000C947E000C947E0054
S11300300C947E000C947E000C947E000C947E0044
S11300400C947E000C94D0000C947E000C947E00E2
S11300500C947E000C947E000C947E000C947E0024
S11300600C947E000C947E000C947E000C947E0014
S11300700C947E000C947E000C947E000C947E0004
S11300800C947E000C947E000C947E000C947E00F4
S11300900C947E000C947E000C947E000C947E00E4
S11300A00C947E000C947E000C947E000C947E00D4
S11300B00C947E000C947E000C947E000C947E00C4
S11300C00C947E000C947E000C947E000C947E00B4
S11300D00C947E000C947E000C947E000C947E00A4
S11300E00C947E0011241FBECFEFD1E2DEBFCDBF42
S11300F000E00CBF0E94E2000C9433010C94000059
S1130100CF93DF93EC016883262F30E040E050E08A
S113011064E274EF80E090E00E94F2002150310923
S11301203A832983DF91CF910895CF93DF93EC0134
S1130130209AE1E8F0E0908198609083AFE6B0E027
S11301409C9192609C93789489819A819093890080
S113015080938800808183608083DF91CF910895AC
S1130160CF93DF93EC018FEF860F823310F4688313
S113017002C081E08883F894288130E040E050E0B8
S113018064E274EF80E090E00E94F20021503109B3
S11301903A832983CE010E949500DF91CF9108957F
S11301A01F920F920FB60F9211248F939F9395B1C4
S11301B081E0892785B99F918F910F900FBE0F9091
S11301C01F901895CF93DF9300D0CDB7DEB764E1CD
S11301D0CE0101960E9480006EE1CE0101960E943C
S11301E0B000FFCF052E97FB1EF400940E94090176
S11301F057FD07D00E94110107FC03D04EF40C9464
S1130200090150954095309521953F4F4F4F5F4FD1
S1130210089590958095709561957F4F8F4F9F4F6E
S11302200895A1E21A2EAA1BBB1BFD010DC0AA1F33
S1130230BB1FEE1FFF1FA217B307E407F50720F04B
S1130240A21BB30BE40BF50B661F771F881F991FC6
S11302501A9469F760957095809590959B01AC010F
S10D0260BD01CF010895F894FFCF0B
S9030000FC
