:100000000C9434000C9451000C9451000C94510049
:100010000C9451000C9451000C9451000C9451001C
:100020000C9451000C9451000C9451000C9451000C
:100030000C9451000C9451000C9451000C945100FC
:100040000C9451000C9451000C945D000C945100E0
:100050000C9451000C9451000C9451000C945100DC
:100060000C9451000C94510011241FBECFEFD8E026
:10007000DEBFCDBF11E0A0E0B1E0E4EFF2E002C0EE
:1000800005900D92A430B107D9F722E0A4E0B1E0C9
:1000900001C01D92AE30B207E1F70E9492000C94AD
:1000A00078010C9400008FB7F894909188018FBF6D
:1000B00081E0911101C080E008951F920F920FB668
:1000C0000F9211242F938F939F93AF93BF93EF932E
:1000D000FF938091C600E4E8F1E0A081B1818C93A8
:1000E000808191810196918380838E179F0731F4DF
:1000F00084E091E090938501809384019FB7F89408
:10010000E8E8F1E080818F5F80839FBFFF91EF91EE
:10011000BF91AF919F918F912F910F900FBE0F9034
:100120001F9018952FB7F89484E091E09093850183
:100130008093840190938701809386012FBF2FB70E
:10014000F89489E891E090930A02809309029093D1
:100150000C0280930B022FBF1092C50083E38093A3
:10016000C40088E98093C10086E08093C20078943F
:100170000F2EF6E8CF2EF1E0DF2EF02D0F2EF4E05B
:100180002F2EF1E03F2EF02D0F2EF8E88F2EF1E00C
:100190009F2EF02DC9E0D2E00F2EF9E86F2EF1E08E
:1001A0007F2EF02D0DE012E00F2EF0ECEF2EF12C53
:1001B000F02D8EC0D601ED91FC9111972191ED9318
:1001C000FC93E458F14019F4F601318220829FB784
:1001D000F894D4018C9181508C939FBFE881F98170
:1001E00020838881998101969983888389509240E0
:1001F00011F4798268829FB7F894F80180818F5F4B
:1002000080839FBFD7018C9185FFFCCF9FB7F89467
:10021000F80180819FBF8823B1F0D201ED91FC915C
:1002200011973191ED93FC93E950F24019F4F201EA
:10023000718260829FB7F894D8018C9181508C9321
:100240009FBFF50130832A3009F04DC0E1E0F1E0B5
:100250008AE02BE032E066EC70E048815981DA01F7
:100260008C938881998101969983888389509240E3
:1002700011F4798268829FB7F894D8018C918F5FCE
:100280008C939FBFD7018C9185FFFCCF9FB7F894CB
:10029000D8018C919FBF8823C1F0D9018D919C9189
:1002A000DC014D91CD01D9018D939C9389509240F1
:1002B00019F4D9016D927C929FB7F894D8018C9172
:1002C00081508C939FBFDB014C9381918111C5CFED
:1002D0000F2EFBE04F2EF2E05F2EF02D0F2EF6ECEE
:1002E000AF2EB12CF02D0E9453008823E1F362CF92
:0402F000F894FFCFB0
:0402F4000A0D0000EF
:00000001FF
