S01B0000736576656E5F7365676D656E745F62617369632E7372656335
S11300000C9434000C9451000C9451000C94510045
S11300100C9451000C9451000C9451000C94510018
S11300200C9451000C9451000C9451000C94510008
S11300300C9451000C9451000C9451000C945100F8
S11300400C9451000C9451000C9451000C945100E8
S11300500C9451000C9451000C9451000C945100D8
S11300600C9451000C94510011241FBECFEFD8E022
S1130070DEBFCDBF11E0A0E0B1E0E6EEF0E002C0EB
S113008005900D92A431B107D9F721E0A4E1B1E0C4
S113009001C01D92A531B207E1F70E9453000C94F0
S11300A071000C9400008FEF8AB91BB8E091140121
S11300B0F0E0E050FF4F80818BB92FEF84E39CE0A8
S11300C0215080409040E1F700C00000809114016D
S11300D0833118F010921401E9CF8F5F80931401DB
S10900E0E5CFF894FFCF08
S11300E6E784D3D6B47677C4F7F6D7371397F37184
S10700F6F6351517AB
S9030000FC
