S016000062696E6172792D636F756E7465722E737265635C
S113000019C028C027C026C025C024C023C022C0D0
S113001021C020C01FC01EC01DC01CC01BC01AC0F0
S113002019C018C017C016C015C014C013C012C020
S113003011C010C011241FBECFEFD4E0DEBFCDBF6E
S113004021E0A0E0B1E001C01D92A130B207E1F7C8
S113005002D015C0D5CF10920001809100018BB958
S11300602FE78AE196E0215080409040E1F700C0FC
S11300700000809100018F5F80930001EECFF8941F
S1050080FFCFAC
S9030000FC
