:100000000C9434000C9451000C9451000C94510049
:100010000C9451000C9451000C9451000C9451001C
:100020000C9451000C9451000C9451000C9451000C
:100030000C9451000C9451000C9451000C945100FC
:100040000C9451000C9451000C945D000C945100E0
:100050000C9451000C9451000C9451000C945100DC
:100060000C9451000C94510011241FBECFEFD8E026
:10007000DEBFCDBF11E0A0E0B1E0E2E0F3E002C0FE
:1000800005900D92A430B107D9F722E0A4E0B1E0C9
:1000900001C01D92AE30B207E1F70E9492000C94AD
:1000A0007F010C9400008FB7F894909188018FBF66
:1000B00081E0911101C080E008951F920F920FB668
:1000C0000F9211242F938F939F93AF93BF93EF932E
:1000D000FF938091C600E4E8F1E0A081B1818C93A8
:1000E000808191810196918380838E179F0731F4DF
:1000F00084E091E090938501809384018FB7F89418
:10010000E8E8F1E090819F5F90838FBFFF91EF91CE
:10011000BF91AF919F918F912F910F900FBE0F9034
:100120001F9018952FB7F89484E091E09093850183
:100130008093840190938701809386012FBF2FB70E
:10014000F89489E891E090930A02809309029093D1
:100150000C0280930B022FBF1092C50083E38093A3
:10016000C40088E98093C10086E08093C20078943F
:100170000F2EF6E8EF2EF1E0FF2EF02D0F2EF4E01B
:100180002F2EF1E03F2EF02D0F2EF8E8CF2EF1E0CC
:10019000DF2EF02D09E012E00F2EF9E8AF2EF1E08E
:1001A000BF2EF02D0F2EFDE08F2EF2E09F2EF02DB2
:1001B000C0ECD0E094C0D701ED91FC911197219152
:1001C000ED93FC93E458F14019F4F7013182208259
:1001D0008FB7F894D6019C9191509C938FBFD80112
:1001E000ED91FC91119720838D919C91119701962F
:1001F0008D939C938950924019F4F801B182A082AA
:100200008FB7F894D4019C919F5F9C938FBF888196
:1002100085FFFDCF9FB7F894F40180819FBF8823AD
:10022000B1F0D301ED91FC9111978191ED93FC9385
:10023000E950F24019F4F301B182A0829FB7F8941B
:10024000D4013C9131503C939FBFF20180832A300E
:1002500009F050C0E1E0F1E04AE06BE072E026EC2A
:1002600030E0D8018D919C91DC014C93D8018D91A7
:100270009C91119701968D939C938950924019F40B
:10028000D801AD92BC928FB7F894D4019C919F5F36
:100290009C938FBF888185FFFDCF9FB7F894D401D1
:1002A0008C919FBF8823C1F0DB018D919C91DC0173
:1002B0004D91CD01DB018D939C938950924019F4AF
:1002C000DB01AD92BC928FB7F894D4019C91915010
:1002D0009C938FBFD9014C9341914111C2CF0F2EF6
:1002E000FBE06F2EF2E07F2EF02D0F2EF6EC4F2E5E
:1002F000512CF02D0E9453008823E1F35CCFF89439
:02030000FFCF2D
:040302000A0D0000E0
:00000001FF
